:020000040800F2
:100000000050002095220008910400089304000885
:1000100095040008970400089904000800000000F7
:100020000000000000000000000000009B04000829
:100030009D040008000000009F040008A1040008BF
:10004000DD220008DD220008DD220008DD22000894
:10005000DD220008DD220008DD220008DD22000884
:10006000DD220008DD220008DD220008DD22000874
:10007000DD220008DD220008DD220008A9040008B6
:10008000DD220008DD220008DD220008DD22000854
:10009000DD220008DD220008DD220008DD22000844
:1000A000DD220008DD220008DD220008DD22000834
:1000B000B9040008DD220008DD220008DD22000866
:1000C000DD220008DD220008DD220008DD22000814
:1000D000DD220008DD220008DD220008DD22000804
:1000E000DD220008DD220008DD22000800000000FB
:1000F0000000000000000000000000000000000000
:0C01000000000000000000005FF808F1A3
:10010C0010B5054C237833B9044B13B10448AFF345
:10011C0000800123237010BD70000020000000003F
:10012C00482C000808B5034B1BB103490348AFF337
:10013C00008008BD0000000074000020482C00085E
:10014C0082B00A4B9A6942F020029A619A6902F0D5
:10015C0020020092009A9A6942F004029A619B690B
:10016C0003F004030193019B02B07047001002409E
:10017C0000B583B00A4B5A6942F001025A615B69BF
:10018C0003F001030193019B002211460F2001F0A3
:10019C0003FF0F2001F038FF03B05DF804FB00BF34
:1001AC00001002400368B3F1804F00D0704770B567
:1001BC0004461C4B1B7813B1012B0DD070BD0123D1
:1001CC00194A1268002100F0D3FF184B00221A8044
:1001DC00144B01221A70F1E7144B1B88124A126857
:1001EC004FF64B7101FB0322114D2B68D21A1149AA
:1001FC000A60114BB3FBF2F20A60104E1049304604
:10020C0002F094F864231E2231460E4801F0DCFF04
:10021C0001232A680021204600F0AAFF014B00228E
:10022C001A70CBE7D2010020B0010020D4010020CD
:10023C008C000020AC01002000A24A04B401002074
:10024C00602C0008640100200368B3F1804F00D0DB
:10025C007047024A138801331380F9E7D401002058
:10026C0072B6FEE700B58BB0002306930793089394
:10027C0009930493059300930193029303931D48F0
:10028C004FF080420260436083604FF6FF72C260A1
:10029C0003618023836100F0B1FC08BB4FF48053F1
:1002AC00069306A9134800F067FED8B9114800F070
:1002BC00FDFCC8B900230493059304A90D4801F073
:1002CC0077F898B9002200920123019302920392CD
:1002DC006946084800F0E2FD50B90BB05DF804FB2C
:1002EC00FFF7BEFFFFF7BCFFFFF7BAFFFFF7B8FF42
:1002FC00FFF7B6FFD400002000B58FB000230A939F
:10030C000B930C930D93089309930193029303930E
:10031C0004930593069307931D481E4A026043609D
:10032C0083604722C26003618023836100F066FC16
:10033C0020BB4FF480530A930AA9154800F01CFE09
:10034C00F0B9134800F086FCE0B900230893099338
:10035C0008A90F4801F02CF8B0B9602301930022D2
:10036C0002920392059201A9094800F0FDFC68B9BC
:10037C00074800F01DF90FB05DF804FBFFF770FFA4
:10038C00FFF76EFFFFF76CFFFFF76AFFFFF768FFE1
:10039C001C0100200004004008B50A480A4B036009
:1003AC004FF41653436000238360C36003610C2237
:1003BC0042618361C36101F0D7FE00B908BDFFF74C
:1003CC004FFF00BF640100200038014000B591B020
:1003DC002822002106A801F0A1FF0023019302931B
:1003EC00039304930593012206924FF480330793F1
:1003FC000A9202220D920E934FF4E0130F9306A86B
:10040C0001F06EF880B90F230193022102910023B1
:10041C0003934FF480620492059301A801F092FAC1
:10042C0020B911B05DF804FBFFF71AFFFFF718FFB6
:10043C0008B501F01BF8FFF7C9FFFFF781FEFFF7C6
:10044C0097FEFFF70FFFFFF757FFFFF7A5FF094BCD
:10045C0023225A630021084800F01CFE074C20465A
:10046C0000F00CFA0123064A12680021204600F025
:10047C007FFEFEE7000400401C010020D400002099
:10048C008C000020FEE7FEE7FEE7FEE7FEE7704784
:10049C007047704708B500F0FBFF08BD08B502486F
:1004AC0001F0C6FC08BD00BF9000002008B5024852
:1004BC0000F07DFA08BD00BFD400002082B00A4BCA
:1004CC009A6942F001029A619A6902F00102009263
:1004DC00009ADA6942F08052DA61DB6903F08053EA
:1004EC000193019B02B070470010024010B588B018
:1004FC00002304930593069307930368B3F1804F8D
:10050C0004D0264A93423ED008B010BD044603F5F1
:10051C000433DA6942F00102DA61DA6902F00102AD
:10052C000192019A9A6942F004029A619B6903F064
:10053C0004030293029B0123049304A9184801F0BD
:10054C00DDFA1848184B0360002343608360802257
:10055C00C2604FF4807202614FF480624261836129
:10056C00C36101F0F3FB58B90E4B63625C6200226D
:10057C0011461C2001F010FD1C2001F045FDC3E7C5
:10058C00FFF76EFEF0E7094BDA6942F00202DA611E
:10059C00DB6903F002030393039BB5E700040040FF
:1005AC00000801409000002058000240001002405A
:1005BC0000B587B00023029303930493059302685C
:1005CC000D4B9A4202D007B05DF804FB03F50333E0
:1005DC009A6942F004029A619B6903F00403019347
:1005EC00019B4023029302230393059302A9034822
:1005FC0001F084FAE7E700BF000400400008014066
:10060C0010B586B0002302930393049305930268FC
:10061C00174B9A4201D006B010BD03F558439A69A6
:10062C0042F480429A619A6902F480420092009AE4
:10063C009A6942F004029A619B6903F004030193E6
:10064C00019B4FF40073029302230393032305933E
:10065C00084C02A9204601F051FA4FF48063029332
:10066C0000230393049302A9204601F047FAD2E732
:10067C00003801400008014070B4036A026A22F09D
:10068C00010202624668826922F073020C6844EA35
:10069C00020523F002028B6813430D4CA04209D0D3
:1006AC000B4CA0420DD0466085614A6842630362E0
:1006BC0070BC704723F00803CA68134323F004038B
:1006CC00EEE726F440764A6932438E691643EAE730
:1006DC00002C014030B4036A026A22F48072026278
:1006EC004568C26922F073020C68224323F400733C
:1006FC008C6843EA04230F4CA04209D00D4CA04255
:10070C000ED04560C2614A68C263036230BC704758
:10071C0023F40063CC6843EA042323F48063EDE7FD
:10072C0025F440554C6945EA04158C6945EA0415D5
:10073C00E7E700BF002C014030B4036A026A22F4E0
:10074C00805202624468C26922F4E6420D6842EAB1
:10075C00052223F400538D6843EA0533074DA84264
:10076C0006D04460C2614A680264036230BC7047C0
:10077C0024F480444D6944EA8514F2E7002C0140CE
:10078C0010B4036A046A24F001040462846924F03E
:10079C00F00C4CEA021223F00A030B438261036251
:1007AC0010BC704730B4056A046A24F0100404626B
:1007BC00846924F4407C4CEA022C2CF4704C1B030E
:1007CC009BB243EA0C0325F0A005090101F0A0013E
:1007DC0029438361016230BC704710B4036A046A18
:1007EC0024F010040462846924F4704C4CEA023244
:1007FC0023F0A00343EA01138261036210BC70472B
:10080C0030B4056A046A24F480740462C46924F068
:10081C00030C4CEA020C2CF0F00C1B01DBB243EA8B
:10082C000C0325F40075090201F400712943C3611E
:10083C00016230BC704730B4056A046A24F48054F9
:10084C000462C46924F4407C4CEA022C2CF4704CF5
:10085C001B039BB243EA0C0325F40055090301F476
:10086C0000512943C361016230BC7047836823F097
:10087C0070030B4343F007038360704790F83D30DF
:10088C00DBB2012B27D1022380F83D300268D368FC
:10089C0043F00103D3600368114A934210D0B3F1C3
:1008AC00804F0DD0A2F59432934209D002F58062AC
:1008BC00934205D01A6842F001021A60002070477A
:1008CC009A6802F00702062A07D01A6842F0010261
:1008DC001A6000207047012070470020704700BF4D
:1008EC00002C014070477047704710B5446A636A2A
:1008FC0083420ED0A36A834216D0E36A83421ED091
:10090C00236B834226D02046FFF74CFC0023237731
:10091C0010BD012323778369002BF4D1012384F8C4
:10092C003E3084F84230EEE7022323778369002BB4
:10093C00E9D1012384F83F3084F84330E3E7042302
:10094C0023778369002BDED1012384F8403084F8AF
:10095C004430D8E7082323778369002BD3D10123B4
:10096C0084F8413084F84530CDE7704710B5446ABF
:10097C00636A83420BD0A36A834210D0E36A83423A
:10098C0010D0236B834204D10823237701E0012389
:10099C0023772046FFF7E9FF0023237710BD0223BE
:1009AC002377F6E704232377F3E77047704710B5F6
:1009BC00044603681A6912F0020F11D0DA6812F0BB
:1009CC00020F0DD06FF002021A6101230377036846
:1009DC009B6913F0030F70D0FFF7E4FB0023237720
:1009EC0023681A6912F0040F12D0DA6812F0040F9F
:1009FC000ED06FF004021A610223237723689B69DF
:100A0C0013F4407F5FD02046FFF7CCFB0023237705
:100A1C0023681A6912F0080F12D0DA6812F0080F66
:100A2C000ED06FF008021A61042323772368DB6968
:100A3C0013F0030F4ED02046FFF7B4FB00232377AF
:100A4C0023681A6912F0100F12D0DA6812F0100F26
:100A5C000ED06FF010021A61082323772368DB692C
:100A6C0013F4407F3DD02046FFF79CFB00232377F7
:100A7C0023681A6912F0010F03D0DA6812F0010F23
:100A8C0036D123681A6912F0800F03D0DA6812F09D
:100A9C00800F34D123681A6912F0400F03D0DA6842
:100AAC0012F0400F32D123681A6912F0200F03D0D4
:100ABC00DA6812F0200F30D110BDFFF715FF204679
:100ACC00FFF773FF8AE72046FFF70EFF2046FFF77C
:100ADC006CFF9BE72046FFF707FF2046FFF765FFFB
:100AEC00ACE72046FFF700FF2046FFF75EFFBDE7AF
:100AFC006FF001021A612046FFF7A6FBC1E76FF009
:100B0C0080021A61204600F08AFCC3E76FF04002B5
:100B1C001A612046FFF74AFFC5E76FF020021A6101
:100B2C00204600F07BFCC7E7704710B5446A636A47
:100B3C0083420CD0A36A834213D0E36A834216D05B
:100B4C00236B834219D0012384F83D3003E0012349
:100B5C00237784F83E302046FFF7E6FF0023237707
:100B6C0010BD02232377012384F83F30F3E70423DD
:100B7C002377012384F84030EDE708232377012302
:100B8C0084F84130E7E7000003681B4A90420AD022
:100B9C00B0F1804F07D0A2F59432904203D002F509
:100BAC008062904203D123F070034A681343124AC7
:100BBC0090420AD0B0F1804F07D0A2F59432904207
:100BCC0003D002F58062904203D123F44073CA68CB
:100BDC00134323F080034A69134303608B68C36299
:100BEC000B688362044B984202D001234361704727
:100BFC000B690363F9E700BF002C014040B310B54B
:100C0C00044690F83D30F3B1022384F83D30214680
:100C1C0051F8040BFFF7B8FF012384F8463084F831
:100C2C003E3084F83F3084F8403084F8413084F80A
:100C3C00423084F8433084F8443084F8453084F8EA
:100C4C003D30002010BD80F83C30FFF74FFCDBE757
:100C5C000120704740B310B5044690F83D30F3B115
:100C6C00022384F83D30214651F8040BFFF78CFF2A
:100C7C00012384F8463084F83E3084F83F3084F801
:100C8C00403084F8413084F8423084F8433084F8A2
:100C9C00443084F8453084F83D30002010BD80F895
:100CAC003C30FFF71FFEDBE70120704740B310B567
:100CBC00044690F83D30F3B1022384F83D302146D0
:100CCC0051F8040BFFF760FF012384F8463084F8D9
:100CDC003E3084F83F3084F8403084F8413084F85A
:100CEC00423084F8433084F8443084F8453084F83A
:100CFC003D30002010BD80F83C30FFF7F4FDDBE701
:100D0C000120704730B4036A026A22F010020262BA
:100D1C004468826922F4E6420D6842EA052223F017
:100D2C0020038D6843EA05130E4DA84209D00D4DE2
:100D3C00A8420ED0446082614A688263036230BC70
:100D4C00704723F08003CD6843EA051323F040037A
:100D5C00EDE724F440644D6944EA85048D6944EA66
:100D6C008504E7E7002C014038B590F83C30012BA6
:100D7C0066D004460D46012380F83C300C2A5AD824
:100D8C00DFE802F0075959591B595959305959592B
:100D9C0044000068FFF770FC2268936943F0080375
:100DAC0093612268936923F0040393612268936929
:100DBC0029690B43936100203EE00068FFF7A2FF16
:100DCC002268936943F4006393612268936923F466
:100DDC008063936122689369296943EA01239361D3
:100DEC00002029E00068FFF775FC2268D36943F006
:100DFC000803D3612268D36923F00403D36122680A
:100E0C00D36929690B43D361002015E00068FFF713
:100E1C0093FC2268D36943F40063D3612268D369DD
:100E2C0023F48063D3612268D369296943EA0123DF
:100E3C00D361002000E00120002384F83C3038BD51
:100E4C000220FCE770B4056A046A24F00104046211
:100E5C008469114EB0420DD0B0F1804F0AD0A6F586
:100E6C009436B04206D006F58066B04202D044F00B
:100E7C00010202E024F00304224322F0F0021B01E1
:100E8C00DBB2134325F00A0201F00A01114383611E
:100E9C00016270BC704700BF002C014038B590F85F
:100EAC003C30012B5AD004460D46012380F83C30CF
:100EBC0052B1042A1AD0082A2BD00C2A3BD001207C
:100ECC00002384F83C3038BDCB684A680968006858
:100EDC00FFF7B8FF2268936923F00C039361226833
:100EEC009369A9680B4393610020E9E7CB684A68D2
:100EFC0009680068FFF756FC2268936923F4406385
:100F0C00936122689369A96843EA012393610020E5
:100F1C00D6E7CB684A6809680068FFF771FC22685D
:100F2C00D36923F00C03D3612268D369A9680B43FE
:100F3C00D3610020C4E7CB684A6809680068FFF7F2
:100F4C007AFC2268D36923F44063D3612268D369A5
:100F5C00A96843EA0123D3610020B1E70220B2E77C
:100F6C0010B4846824F47F4C42EA03220A4342EA18
:100F7C000C02826010BC704790F83C30012B78D08A
:100F8C0010B50446012380F83C30022380F83D3034
:100F9C000268936823F47F4323F0770393600B6814
:100FAC00602B4CD029D8402B54D00CD9502B22D1AB
:100FBC00CA6849680068FFF7E3FB50212068FFF717
:100FCC0055FC002005E0202B0DD009D9302B0AD080
:100FDC000120012384F83D30002384F83C3010BDFF
:100FEC000BB1102B05D119462068FFF73FFC0020F0
:100FFC00EFE70120EDE70120EBE7B3F5805F34D09C
:10100C00B3F5005F0CD1CB684A6889680068FFF7BC
:10101C00A7FF2268936843F4804393600020D8E7CD
:10102C00702B24D1CB684A6889680068FFF798FF59
:10103C002268936843F0770393600020C9E7CA687D
:10104C0049680068FFF7C9FB60212068FFF70EFCB8
:10105C000020BEE7CA6849680068FFF791FB402191
:10106C002068FFF703FC0020B3E70020B1E7012064
:10107C00AFE70220704701F01F01012303FA01FCC6
:10108C00036A23EA0C030362036A02FA01F10B43BD
:10109C000362704710B50446084651BB94F83E30C5
:1010AC00DBB2013B18BF0123002B5BD1002839D1E7
:1010BC00022384F83E30012201462068FFF7DBFF53
:1010CC0023682A4A93423DD02368284A93423ED053
:1010DC00B3F1804F3BD0A2F59432934237D002F556
:1010EC008062934233D01A6842F001021A600020E9
:1010FC0039E0042908D008290DD094F84130DBB22E
:10110C00013B18BF0123CFE794F83F30DBB2013B22
:10111C0018BF0123C8E794F84030DBB2013B18BF7D
:10112C000123C1E7042805D0082807D0022384F83E
:10113C004130C0E7022384F83F30BCE7022384F837
:10114C004030B8E75A6C42F400425A64BCE79A68E3
:10115C0002F00702062A07D01A6842F001021A6050
:10116C00002000E0012010BD0020FCE7002C014015
:10117C002DE9F041044616461F460D46002936D18E
:10118C0090F83E10C8B2002D41D194F842805FFA1D
:10119C0088F8022800F0F380B8F1020F00F0EC8020
:1011AC00012840F0EB80B8F1010F40F0E880002EF0
:1011BC0000F0E780002F00F0E680002D3AD10223EA
:1011CC0084F83E30002D45D1022384F842300122B0
:1011DC0029462068FFF74FFF0C2D63D8DFE805F098
:1011EC004A6262627762626290626262A90004295A
:1011FC0005D0082907D090F84110C8B2C3E790F881
:10120C003F10C8B2BFE790F84000C0B2BBE7042D56
:10121C0006D0082D09D094F845805FFA88F8B8E715
:10122C0094F843805FFA88F8B3E794F844805FFA47
:10123C0088F8AEE7042D05D0082D07D0022384F8DA
:10124C004130BFE7022384F83F30BBE7022384F828
:10125C004030B7E7042D05D0082D07D0022384F8C1
:10126C004530B4E7022384F84330B0E7022384F816
:10127C004430ACE7636A4A4A9A62636A494ADA6262
:10128C00636A494A1A6321683B4632463431606AC4
:10129C0000F092FD002878D12268D36843F40073E3
:1012AC00D36080462368414A93425AD0B3F1804FB1
:1012BC0057D0A2F59432934253D002F580629342F8
:1012CC004FD01A6842F001021A60404657E0A36AF8
:1012DC00334A9A62A36A334ADA62A36A324A1A63BD
:1012EC0021683B4632463831A06A00F065FD002883
:1012FC004DD12268D36843F48063D3608046D1E734
:10130C00E36A274A9A62E36A264ADA62E36A264A61
:10131C001A6321683B4632463C31E06A00F04CFDD2
:10132C00002836D12268D36843F40063D36080462A
:10133C00B8E7236B1A4A9A62236B1A4ADA62236B58
:10134C00194A1A6321683B4632464031206B00F043
:10135C0033FD00BB2268D36843F48053D3608046CE
:10136C00A0E79A6802F00702062A16D01A6842F023
:10137C0001021A60404602E0404600E00120BDE850
:10138C00F0814046FBE74046F9E74046F7E7404628
:10139C00F5E74046F3E74046F1E74046EFE700BF8C
:1013AC00F708000879090008370B0008002C0140E9
:1013BC0090F83C30012B2CD010B4012380F83C3039
:1013CC00022380F83D3003685A689C6822F0700C48
:1013DC000A6842EA0C025A6003680F4A93420AD028
:1013EC00B3F1804F07D0A2F59432934203D002F5AB
:1013FC008062934204D124F080044A6814439C60B8
:10140C00012380F83D30002380F83C30184610BC96
:10141C0070470220704700BF002C01407047704796
:10142C0010B504460E4B18784FF47A73B3FBF0F3F7
:10143C000C4A1068B0FBF3F000F0F4FD68B90F2C07
:10144C0001D901200AE0002221464FF0FF3000F0C4
:10145C00A3FD054B1C60002000E0012010BD00BF67
:10146C0000000020080000200400002008B5074AF6
:10147C00136843F010031360032000F07BFD0F2072
:10148C00FFF7CEFFFFF71AF8002008BD002002403E
:10149C00034A1168034B1B780B441360704700BF61
:1014AC00D801002000000020014B1868704700BFD5
:1014BC00D801002082B0084B1B68084AA2FB03230A
:1014CC005B0A00FB03F3019300BF019B5A1E0192C0
:1014DC00002BF9D102B0704708000020D34D6210E8
:1014EC00002800F0F18170B582B00446036813F057
:1014FC00010F2CD0994B5B6803F00C03042B1DD00F
:10150C00964B5B6803F00C03082B12D06368B3F5A1
:10151C00803F41D0002B55D103F1804303F50433B8
:10152C001A6822F480321A601A6822F480221A6037
:10153C0037E08A4B5B6813F4803FE7D0874B1B681E
:10154C0013F4003F03D06368002B00F0BF812368C5
:10155C0013F0020F75D0814B5B6813F00C0F5FD04A
:10156C007E4B5B6803F00C03082B54D02369002BD3
:10157C0000F08A807A4B01221A60FFF795FF05462E
:10158C00764B1B6813F0020F75D1FFF78DFF401BD4
:10159C000228F5D903209EE1704A136843F4803386
:1015AC001360636843B3FFF77FFF05466B4B1B6803
:1015BC0013F4003FCBD1FFF777FF401B6428F5D91C
:1015CC00032088E1B3F5A02F09D0644B1A6822F4EC
:1015DC0080321A601A6822F480221A60E1E703F163
:1015EC008043A3F53C331A6842F480221A601A68CF
:1015FC0042F480321A60D4E7FFF756FF0546574B8A
:10160C001B6813F4003FA2D0FFF74EFF401B642869
:10161C00F5D903205FE1514B5B6813F4803FA5D1F2
:10162C004E4B1B6813F0020F03D02369012B40F0C3
:10163C004F814A4A136823F0F803616943EAC103F6
:10164C001360236813F0080F33D0A369002B5CD010
:10165C00434B0122C3F88024FFF726FF05463F4B7E
:10166C005B6A13F0020F21D1FFF71EFF401B02280B
:10167C00F5D903202FE1394A136823F0F803616987
:10168C0043EAC1031360DCE7354B00221A60FFF715
:10169C000BFF0546314B1B6813F0020FD1D0FFF73F
:1016AC0003FF401B0228F5D9032014E10120FFF7AA
:1016BC0001FF236813F0040F00F09680274BDB69C1
:1016CC0013F0805F34D1254BDA6942F08052DA6135
:1016DC00DB6903F080530193019B0125214B1B68AF
:1016EC0013F4807F26D0E368012B3DD0002B53D11F
:1016FC0003F1804303F504331A6A22F001021A62E3
:10170C001A6A22F004021A6233E0154B0022C3F865
:10171C008024FFF7C9FE0546104B5B6A13F0020FDD
:10172C00C7D0FFF7C1FE401B0228F5D90320D2E039
:10173C000025D3E70B4A136843F480731360FFF75B
:10174C00B3FE0646074B1B6813F4807FCBD1FFF723
:10175C00ABFE801B6428F5D90320BCE000100240CE
:10176C0000004242007000405F4A136A43F00103DC
:10177C001362E36833B3FFF797FE06465A4B1B6AB6
:10178C0013F0020F2FD1FFF78FFE801B41F288332D
:10179C009842F3D903209EE0052B09D0524B1A6ACC
:1017AC0022F001021A621A6A22F004021A62E0E7BD
:1017BC004D4B1A6A42F004021A621A6A42F0010294
:1017CC001A62D6E7FFF770FE0646474B1B6A13F00A
:1017DC00020F08D0FFF768FE801B41F28833984255
:1017EC00F3D9032077E0E5B9E369002B72D03E4AC8
:1017FC00526802F00C02082A56D0022B17D03B4B31
:10180C0000221A66FFF750FE0446374B1B6813F094
:10181C00007F47D0FFF748FE001B0228F5D90320B4
:10182C0059E0314AD36923F08053D361DCE72F4B65
:10183C0000221A66FFF738FE05462B4B1B6813F087
:10184C00007F06D0FFF730FE401B0228F5D903209D
:10185C0041E0236AB3F5803F1AD023494B6823F447
:10186C007413226A606A024313434B601F4B0122BC
:10187C001A66FFF719FE04461B4B1B6813F0007F1A
:10188C000ED1FFF711FE001B0228F5D9032022E030
:10189C00154A536823F40033A1680B435360DCE70B
:1018AC00002018E0002016E0012B16D00E4B5B68D0
:1018BC0003F48031226A914211D103F47013626AED
:1018CC0093420ED1002006E001207047012002E077
:1018DC00012000E0002002B070BD0120FBE70120D8
:1018EC00F9E70120F7E700BF001002400000424278
:1018FC000F4B5B6803F00C02082A01D00D487047AF
:10190C00C3F383420C49885C13F4803F0BD0084B23
:10191C005B68C3F34043094AD35C064A02FB00F000
:10192C00B0FBF3F07047064B03FB00F0704700BFB1
:10193C000010024000127A00742C0008842C00085D
:10194C0000093D00002800F0A08070B50D4604464B
:10195C00524B1B6803F007038B420BD24F4A1368A0
:10196C0023F007030B431360136803F007038B4248
:10197C0040F08D80236813F0020F17D013F0040F82
:10198C0004D0474A536843F4E0635360236813F070
:10199C00080F04D0424A536843F460535360404AE2
:1019AC00536823F0F003A1680B435360236813F0D2
:1019BC00010F31D06368012B20D0022B25D0384A7F
:1019CC00126812F0020F64D035494A6822F0030203
:1019DC0013434B60FFF768FD0646314B5B6803F021
:1019EC000C036268B3EB820F16D0FFF75DFD801B12
:1019FC0041F288339842F0D9032045E0284A126816
:101A0C0012F4003FE0D101203EE0254A126812F0AA
:101A1C00007FD9D1012037E0204B1B6803F007036E
:101A2C00AB420AD91D4A136823F007032B431360FA
:101A3C00136803F00703AB422DD1236813F0040F96
:101A4C0006D0174A536823F4E063E1680B435360F4
:101A5C00236813F0080F07D0114A536823F460531E
:101A6C00216943EAC1035360FFF742FF0C4B5B68EB
:101A7C00C3F303130B4AD35CD8400B4B18600B4BCE
:101A8C001868FFF7CDFC002070BD012070470120C5
:101A9C00FAE70120F8E70120F6E700BF002002403A
:101AAC0000100240882C00080800002004000020D0
:101ABC00014B1868704700BF0800002008B5FFF7FD
:101ACC00F7FF044B5B68C3F30223034AD35CD84093
:101ADC0008BD00BF00100240982C000808B5FFF7A5
:101AEC00E7FF044B5B68C3F3C223034AD35CD840C3
:101AFC0008BD00BF00100240982C000870B582B0E1
:101B0C000024A446A6E0804DAA4210D007D97F4DF0
:101B1C00AA420CD005F58035AA4208D013E0A5F5F1
:101B2C008015AA4203D005F57025AA4207D18A6810
:101B3C00002A58D0012A51D04361082403E0A5F5AE
:101B4C008015AA42F3D0BEF1FF0F4ED80646BEF167
:101B5C00FF0F4CD84FEA8C0233680F25954023EACF
:101B6C00050304FA02F2134333604B6813F0805FF1
:101B7C006ED0674B9A6942F001029A619B6903F03F
:101B8C0001030193019B4FEA9C02951C614B53F896
:101B9C0025600CF003039D000F23AB4026EA0306DF
:101BAC005D4B984229D003F58063984200F08E80FB
:101BBC0003F58063984200F08B8003F580639842B4
:101BCC0019D004231AE0CC68BDE7CC680434BAE71A
:101BDC00CC680834B7E7CC680C34B4E7036108244C
:101BEC00B1E70024AFE70424ADE7061DAFE7ACF185
:101BFC0008029200B0E7032300E00023AB4033431C
:101C0C000232444D45F822304B6813F4801F61D0EA
:101C1C00424A936843EA0E0393604B6813F4001F27
:101C2C005ED03E4AD36843EA0E03D3604B6813F48C
:101C3C00003F5BD0394A536843EA0E0353604B684C
:101C4C0013F4803F58D0354A136843EA0E031360EF
:101C5C000CF1010C0A6832FA0CF353D0012303FA8D
:101C6C000CF302EA030E33EA0202F1D14A68122A9B
:101C7C003FF649AF122A3FF666AF01A555F822F0A0
:101C8C003B1B0008D31B0008DD1B0008EF1B0008E2
:101C9C00531B0008531B0008531B0008531B000860
:101CAC00531B0008531B0008531B0008531B000850
:101CBC00531B0008531B0008531B0008531B000840
:101CCC00531B0008D71B0008E31B0008012395E7F2
:101CDC00022393E7114A936823EA0E0393609CE76F
:101CEC000E4AD36823EA0E03D3609FE70B4A53686E
:101CFC0023EA0E035360A2E7084A136823EA0E0393
:101D0C001360A5E702B070BD000022100000311076
:101D1C000010024000000140000801400004014096
:101D2C0030B40124056CAC40C56B6C600468636016
:101D3C004368102B05D0036899600368DA6030BCE7
:101D4C00704703689A600368D960F8E760B310B411
:101D5C0002460168154B0B441548A0FB03031B09F5
:101D6C009B001364134BD363022382F82130086861
:101D7C0020F47F5020F03000536894682343D468DB
:101D8C002343146923435469234394692343D4693B
:101D9C00234303430B6000209063012382F821301E
:101DAC0082F8200010BC704701207047F8FFFDBF7F
:101DBC00CDCCCCCC0000024038B5044690F82000C5
:101DCC00012832D0012084F8200094F82100C0B200
:101DDC00012804D0002384F82030022038BD0220D2
:101DEC0084F821000020A0632568286820F00100F9
:101DFC0028602046FFF794FFE36A5BB12268136802
:101E0C0043F00E0313602268136843F00103136060
:101E1C000020E3E72268136823F0040313602268B0
:101E2C00136843F00A031360EDE70220D6E70000C5
:101E3C0038B5C36B1A6804682568016C04238B40A1
:101E4C00134235D015F0040F32D0236813F0200F55
:101E5C0003D1236823F0040323600368434A9342AD
:101E6C0014D01432934218D01432934217D0143237
:101E7C00934217D01432934217D01432934202D0AB
:101E8C004FF0806203E04FF4800200E00422384BF4
:101E9C005A60C36A03B1984738BD4022F7E74FF444
:101EAC008062F4E74FF48042F1E74FF48022EEE7D2
:101EBC0002238B4013423CD015F0020F39D023681B
:101ECC0013F0200F06D1236823F00A0323600123AB
:101EDC0080F821300368254A934214D0143293427F
:101EEC001CD0143293421BD0143293421BD01432A8
:101EFC0093421BD01432934202D04FF0007203E095
:101F0C004FF4001200E00222194B5A60002380F8B3
:101F1C002030836A002BBFD09847BDE72022F3E71F
:101F2C004FF40072F0E74FF40052EDE74FF400323B
:101F3C00EAE7082303FA01F11142ADD015F0080FBE
:101F4C00AAD0236823F00E032360026CC16B01231B
:101F5C0003FA02F24A60836380F82130002380F890
:101F6C002030036B002B97D0984795E70800024070
:101F7C0000000240074AD36823F4E0631B041B0CE7
:101F8C00000200F4E060034343F0BF6343F400330A
:101F9C00D360704700ED00E000B5194BDB68C3F36C
:101FAC000223C3F1070CBCF1040F28BF4FF0040C43
:101FBC0003F1040EBEF1060F18D9033B4FF0FF3EA0
:101FCC000EFA0CFC21EA0C0199400EFA03F322EAFA
:101FDC000303194300280BDB0901C9B200F160406F
:101FEC0000F5614080F800135DF804FB0023E5E781
:101FFC0000F00F000901C9B2024B1954F4E700BFFD
:10200C0000ED00E014ED00E0002807DB00F01F02FB
:10201C00400901239340024A42F82030704700BF28
:10202C0000E100E00138B0F1807F0BD24FF0E023EB
:10203C005861054AF02182F823100020986107228C
:10204C001A6170470120704700ED00E010B504469E
:10205C000268136923F44053C1680B43136183680E
:10206C000269134342691A430168CB6823F4B053E5
:10207C0023F00C031343CB600268536923F44073C1
:10208C0081690B4353610268134B9A4220D0FFF7CE
:10209C0015FD024602EB820202EB820263689B0092
:1020AC00B2FBF3F20D48A0FB02314909642303FB98
:1020BC0011231B013233A0FB03235B0903F0F00255
:1020CC0002EB011203F00F03216813448B6010BD67
:1020DC00FFF704FD0246DDE7003801401F85EB5198
:1020EC002DE9F84305460F4616469946DDF8208043
:1020FC002C68246837EA04030CBF4FF0010C4FF036
:10210C00000CB4452DD1B8F1FF3FF1D0B8F1000F60
:10211C0005D0FFF7C9F9A0EB09004045E8D92A68BA
:10212C0002F10C0353E8003F23F4D0730C3242E865
:10213C0000310029F3D12A6802F1140353E8003F5F
:10214C0023F00103143242E800310029F3D120239B
:10215C0085F8413085F84230002385F84030032063
:10216C0000E00020BDE8F88360B310B5044690F899
:10217C00413013B3242384F841302268D36823F40C
:10218C000053D3602046FFF761FF2268136923F4E4
:10219C00904313612268536923F02A035361226828
:1021AC00D36843F40053D36000206064202384F888
:1021BC00413084F84230606310BD80F84030FEF747
:1021CC001FFAD7E7012070472DE9F04182B01E4677
:1021DC0090F84130DBB2202B4BD104460D46904693
:1021EC0000294AD00AB9012044E00023436421238A
:1021FC0080F84130FFF758F90746A4F82480A4F87A
:10220C002680A368B3F5805F02D04FF000080FE082
:10221C002369FBB14FF000080AE038F8023B226852
:10222C00C3F308035360E28C92B2013A92B2E28497
:10223C00E38C9BB28BB100963B460022802120465A
:10224C00FFF74EFFD8B9002DE7D015F8012B236806
:10225C005A60E8E7A8460025EAE700963B460022CC
:10226C0040212046FFF73CFF58B9202384F8413029
:10227C0000E0022002B0BDE8F0810120FAE7032063
:10228C00F8E70320F6E77047FFF7FDFF0B480C4912
:10229C000C4A002302E0D458C4500433C4188C42B6
:1022AC00F9D3094A094C002301E013600432A2421D
:1022BC00FBD300F00FF8FEF7BBF8704700000020CE
:1022CC0070000020DC2C000870000020F0010020C1
:1022DC00FEE7000070B500260C4D0D4C641BA410DD
:1022EC00A64209D100F0AAFC00260A4D0A4C641B38
:1022FC00A410A64205D170BD55F8043B9847013691
:10230C00EEE755F8043B98470136F2E7D42C000869
:10231C00D42C0008D42C0008D82C00080346024406
:10232C00934200D1704703F8011BF9E70EB46FF02C
:10233C00004100B59CB01DAB029006900791049132
:10234C000848094953F8042B0591006802A9019328
:10235C0000F068F80022029B1A701CB05DF804EBC8
:10236C0003B070470C0000200802FFFF2DE9F04776
:10237C008E6882469E420C4690461F4638D88A8903
:10238C0012F4906F32D0256809690133A5EB01096D
:10239C0065694B4405EB450505EBD5756D109D4204
:1023AC0038BF1D46530531D5294600F06FFB064654
:1023BC0050B90C234FF0FF30CAF80030A38943F01A
:1023CC004003A381BDE8F0874A46216900F0CEFAAC
:1023DC00A38923F4906343F08003A38126614E44C8
:1023EC0026603E466561A5EB0905A560BE4200D995
:1023FC003E4632464146206800F0C6FAA3680020EB
:10240C009B1BA360236833442360DBE72A4600F060
:10241C00B1FB06460028E1D15046216900F0CEFA06
:10242C00C7E700002DE9F04F98468B8907461B063D
:10243C000D4614469DB00ED50B6963B9402100F0D2
:10244C0025FB2860286120B90C233B604FF0FF303E
:10245C00D1E040236B610023099320238DF82930B0
:10246C0030234FF00109CDF80C80DFF8A4818DF8F2
:10247C002A3023469A4613F8012B0AB1252AF9D1A2
:10248C00BAEB040B0BD05B46224629463846FFF7C5
:10249C006DFF013000F0AA80099A5A4409929AF80B
:1024AC000030002B00F0A28000234FF0FF32CDE96A
:1024BC0005230AF1010A049307938DF853301A93FC
:1024CC005446052214F8011B514800F041FA049AB5
:1024DC00D8B9D00644BF20238DF85330110744BF20
:1024EC002B238DF853309AF800302A2B15D05446F4
:1024FC0000204FF00A0C079A214611F8013B303BA3
:10250C00092B4ED9B0B1079214E0A0EB080309FADD
:10251C0003F31343A2460493D2E7039B191D1B68D4
:10252C000391002BBBBF5B4242F00202079307935F
:10253C00B8BF049223782E2B0CD163782A2B35D17B
:10254C00039B02341A1D1B680392002BB8BF4FF07B
:10255C00FF330593DFF8BCA003225046217800F02E
:10256C00F7F940B14023A0EB0A0003FA00F0049BFA
:10257C0001340343049314F8011B062226488DF8FA
:10258C00281000F0E5F9002838D0244B1BBB039B26
:10259C00073323F0070308330393099B3344099350
:1025AC0067E70C4601200CFB0232A5E700234FF035
:1025BC000A0C194601340593204610F8012B303AC9
:1025CC00092A03D9002BC5D00591C3E70446012382
:1025DC000CFB0121F0E703AB00932A463846104B65
:1025EC0004A9AFF30080421C0646D6D1AB895B062A
:1025FC003FF52CAF09981DB0BDE8F08F03AB0093ED
:10260C002A463846064B04A900F07CF8EBE700BFDD
:10261C00A02C0008A62C0008AA2C00080000000022
:10262C00792300082DE9F047164699468A680B690C
:10263C0007469342B8BF1346336091F843200C46CB
:10264C00DDF820800AB1013333602368990642BF5C
:10265C00336802333360256815F0060506D104F1A2
:10266C00190AE36832689B1AAB4228DC94F84320C1
:10267C00131E226818BF012392062DD449463846F2
:10268C0004F14302C047013020D02368E56803F011
:10269C000603042B18BF002532684FF00006A36810
:1026AC0008BFAD1A226908BF25EAE5759342C4BF7D
:1026BC009B1AED181A34B5421AD1002008E00123F8
:1026CC00524649463846C047013003D14FF0FF30DF
:1026DC00BDE8F0870135C4E73020E11881F84300EC
:1026EC005A1C94F845102244023382F84310C5E773
:1026FC000123224649463846C0470130E6D0013610
:10270C00D9E700002DE9FF470F7E9146782F8046D0
:10271C000C469A460C9D01F1430207D8622F0AD849
:10272C00002F00F0D980582F00F0A48004F142054E
:10273C0084F842703AE0A7F16303152BF6D801A197
:10274C0051F823F0A9270008BD27000839270008F5
:10275C00392700083927000839270008BD27000849
:10276C0039270008392700083927000839270008BD
:10277C00CB280008ED270008AD28000839270008F1
:10278C0039270008ED28000839270008ED27000834
:10279C003927000839270008B52800082B681A1DAE
:1027AC001B682A6004F1420584F842300123A4E03E
:1027BC0020682968060601F104030AD50E682B600F
:1027CC00002E03DA2D23764284F843300A235E4828
:1027DC0019E00E6810F0400F2B6018BF36B2EFE70F
:1027EC002B682068191D2960010601D51E6802E0BE
:1027FC004606FBD51E886F2F0CBF08230A235248B0
:10280C00002184F843106568002DA8BF2168A560DD
:10281C00A4BF21F0040121600EB9002D4DD0154646
:10282C00B6FBF3F103FB1167C75D05F8017D374675
:10283C00BB420E46F4D9082B0BD12368DE0708D512
:10284C00236961689942DEBF302305F8013C05F12C
:10285C00FF35521B22614B4621464046CDF800A065
:10286C0003AAFFF7DFFE01304CD14FF0FF3004B06C
:10287C00BDE8F087344881F845702968236851F821
:10288C00046B29601D0614D5DF0744BF43F02003F9
:10289C0023601EB9236823F0200323601023AFE7C5
:1028AC00236843F0200323607823284884F84530BC
:1028BC00E3E7590648BFB6B2E6E71546BBE72B6817
:1028CC002668181D6169286035061B6801D51960DA
:1028DC0002E07006FBD51980002315462361BAE788
:1028EC002B6800211A1D2A601D686268284600F0BA
:1028FC002FF808B1401B606063682361002384F8E3
:10290C004330A8E72A46494640462369D047013060
:10291C00ABD023689B0713D4E068039B9842B8BFE5
:10292C001846A4E70123324649464046D0470130B9
:10293C009BD00135E36803995B1AAB42F2DCEBE701
:10294C00002504F11906F5E7B12C0008C22C00088B
:10295C00034610B5C9B202449342184601D1002077
:10296C0003E0047801338C42F6D110BD0A44914245
:10297C0000F1FF3300D1704710B511F8014B9142B3
:10298C0003F8014FF9D110BD884210B501EB0204D8
:10299C0002D98442234607D8431EA14208D011F81D
:1029AC00012B03F8012FF8E7014602448A4200D1BB
:1029BC0010BD13F8014D02F8014DF7E738B5054687
:1029CC00002940D051F8043C0C1F002BB8BFE41870
:1029DC0000F010F91C4A136833B963601460284680
:1029EC00BDE8384000F00CB9A34208D92068211882
:1029FC008B4201BF19685B6809182160EDE71A4624
:102A0C005B680BB1A342FAD911685018A0420BD1E4
:102A1C0020680144501883421160E0D118685B684B
:102A2C00014411605360DAE702D90C232B60D6E71E
:102A3C00206821188B4201BF19685B680918216056
:102A4C0063605460CBE738BDDC01002070B50E4EDE
:102A5C000C463168054611B900F0BCF830602146CF
:102A6C00284600F0B7F8431C0AD0C41C24F0030419
:102A7C00A04207D0211A284600F0ACF8013001D151
:102A8C004FF0FF34204670BDE00100202DE9F041ED
:102A9C00CD1C25F0030508350C2D38BF0C25002D59
:102AAC00074601DBA94205D90C2300263B603046C2
:102ABC00BDE8F0812E4E00F09DF833681C4634BB07
:102ACC0029463846FFF7C2FF431C04464DD13468F3
:102ADC002646002E40D123683146384604EB0308C5
:102AEC0000F078F880453AD1216803356D1A25F04D
:102AFC00030508350C2D38BF0C2538462946FFF741
:102B0C00A5FF01302BD023682B4423600EE02268F4
:102B1C00521B1ED40B2A16D96119A342256018BF6B
:102B2C005960636808BF316062514B60384604F1EC
:102B3C000B0600F065F826F00706231DF21AB6D036
:102B4C009B1BA350B3E76268A3420CBF32605A6070
:102B5C00ECE723466468B2E734467668B9E70C23A1
:102B6C0038463B6000F04CF8A1E72560DEE700BF7B
:102B7C00DC0100202DE9F041804614460E4621B9B7
:102B8C001146BDE8F041FFF781BF2AB9FFF716FFE8
:102B9C0025462846BDE8F08100F038F88442074607
:102BAC0002D8B4EB500F12D821464046FFF76EFF07
:102BBC0005460028EDD0BC422246314628BF3A4695
:102BCC00FFF7D4FE31464046FFF7F8FEE1E7354605
:102BDC00DFE7000038B50023054D044608462B609E
:102BEC0000F01EF8431C02D12B6803B1236038BDE2
:102BFC00E4010020014800F011B800BFE8010020FA
:102C0C00014800F00CB800BFE801002051F8043C6A
:102C1C00181F002BBCBF0B58C0187047704770476B
:102C2C00044A05491368002B08BF0B461844106072
:102C3C0018467047EC010020F0010020F8B500BFE9
:102C4C00F8BC08BC9E467047F8B500BFF8BC08BC81
:042C5C009E467047D9
:102C60004672657175656E63793A20256C752048EA
:102C70007A00000002030405060708090A0B0C0D80
:102C80000E0F101001020000000000000000000004
:102C90000102030406070809000000000102030402
:102CA000232D302B2000686C4C0065666745464735
:102CB00000303132333435363738394142434445B8
:102CC0004600303132333435363738396162636427
:042CD0006566000035
:042CD40031010008C2
:042CD8000D010008E2
:102CDC0001000000100000000024F400100000208F
:102CEC0000000000000000000000000000000000D8
:102CFC0000000000000000000000000000000000C8
:102D0C0000000000000000000000000000000000B7
:102D1C0000000000000000000000000000000000A7
:102D2C000000000000000000000000000000000097
:102D3C000000000000000000000000000000000087
:040000050800229538
:00000001FF
